{
	"_format": "hh-sol-artifact-1",
	"contractName": "ZebecCard",
	"sourceName": "contracts/ZebecCard.sol",
	"abi": [
		{
			"inputs": [
				{
					"internalType": "address",
					"name": "target",
					"type": "address"
				}
			],
			"name": "AddressEmptyCode",
			"type": "error"
		},
		{
			"inputs": [
				{
					"internalType": "address",
					"name": "account",
					"type": "address"
				}
			],
			"name": "AddressInsufficientBalance",
			"type": "error"
		},
		{
			"inputs": [
				{
					"internalType": "address",
					"name": "implementation",
					"type": "address"
				}
			],
			"name": "ERC1967InvalidImplementation",
			"type": "error"
		},
		{
			"inputs": [],
			"name": "ERC1967NonPayable",
			"type": "error"
		},
		{
			"inputs": [],
			"name": "FailedInnerCall",
			"type": "error"
		},
		{
			"inputs": [],
			"name": "InvalidInitialization",
			"type": "error"
		},
		{
			"inputs": [
				{
					"internalType": "uint256",
					"name": "requiredBalance",
					"type": "uint256"
				},
				{
					"internalType": "uint256",
					"name": "currentBalance",
					"type": "uint256"
				}
			],
			"name": "NotEnoughBalance",
			"type": "error"
		},
		{
			"inputs": [],
			"name": "NotInitializing",
			"type": "error"
		},
		{
			"inputs": [
				{
					"internalType": "address",
					"name": "owner",
					"type": "address"
				}
			],
			"name": "OwnableInvalidOwner",
			"type": "error"
		},
		{
			"inputs": [
				{
					"internalType": "address",
					"name": "account",
					"type": "address"
				}
			],
			"name": "OwnableUnauthorizedAccount",
			"type": "error"
		},
		{
			"inputs": [
				{
					"internalType": "address",
					"name": "token",
					"type": "address"
				}
			],
			"name": "SafeERC20FailedOperation",
			"type": "error"
		},
		{
			"inputs": [],
			"name": "UUPSUnauthorizedCallContext",
			"type": "error"
		},
		{
			"inputs": [
				{
					"internalType": "bytes32",
					"name": "slot",
					"type": "bytes32"
				}
			],
			"name": "UUPSUnsupportedProxiableUUID",
			"type": "error"
		},
		{
			"anonymous": false,
			"inputs": [
				{
					"indexed": true,
					"internalType": "address",
					"name": "from",
					"type": "address"
				},
				{
					"indexed": true,
					"internalType": "uint256",
					"name": "id",
					"type": "uint256"
				},
				{
					"indexed": false,
					"internalType": "uint256",
					"name": "amount",
					"type": "uint256"
				},
				{
					"indexed": false,
					"internalType": "string",
					"name": "cardType",
					"type": "string"
				},
				{
					"indexed": false,
					"internalType": "string",
					"name": "userEmail",
					"type": "string"
				},
				{
					"indexed": false,
					"internalType": "uint256",
					"name": "purchasedAt",
					"type": "uint256"
				}
			],
			"name": "CardPurchased",
			"type": "event"
		},
		{
			"anonymous": false,
			"inputs": [
				{
					"indexed": true,
					"internalType": "address",
					"name": "from",
					"type": "address"
				},
				{
					"indexed": false,
					"internalType": "uint256",
					"name": "amount",
					"type": "uint256"
				}
			],
			"name": "Deposited",
			"type": "event"
		},
		{
			"anonymous": false,
			"inputs": [
				{
					"indexed": false,
					"internalType": "uint64",
					"name": "version",
					"type": "uint64"
				}
			],
			"name": "Initialized",
			"type": "event"
		},
		{
			"anonymous": false,
			"inputs": [
				{
					"indexed": true,
					"internalType": "address",
					"name": "previousOwner",
					"type": "address"
				},
				{
					"indexed": true,
					"internalType": "address",
					"name": "newOwner",
					"type": "address"
				}
			],
			"name": "OwnershipTransferred",
			"type": "event"
		},
		{
			"anonymous": false,
			"inputs": [
				{
					"indexed": true,
					"internalType": "address",
					"name": "from",
					"type": "address"
				},
				{
					"indexed": true,
					"internalType": "address",
					"name": "srcToken",
					"type": "address"
				},
				{
					"indexed": false,
					"internalType": "uint256",
					"name": "amount",
					"type": "uint256"
				},
				{
					"indexed": false,
					"internalType": "uint256",
					"name": "spentAmount",
					"type": "uint256"
				},
				{
					"indexed": false,
					"internalType": "uint256",
					"name": "returnAmount",
					"type": "uint256"
				},
				{
					"indexed": false,
					"internalType": "uint256",
					"name": "feeAmount",
					"type": "uint256"
				}
			],
			"name": "Swapped",
			"type": "event"
		},
		{
			"anonymous": false,
			"inputs": [
				{
					"indexed": true,
					"internalType": "address",
					"name": "implementation",
					"type": "address"
				}
			],
			"name": "Upgraded",
			"type": "event"
		},
		{
			"anonymous": false,
			"inputs": [
				{
					"indexed": true,
					"internalType": "address",
					"name": "from",
					"type": "address"
				},
				{
					"indexed": false,
					"internalType": "uint256",
					"name": "withdrawnAmount",
					"type": "uint256"
				}
			],
			"name": "WithdrawYield",
			"type": "event"
		},
		{
			"anonymous": false,
			"inputs": [
				{
					"indexed": true,
					"internalType": "address",
					"name": "from",
					"type": "address"
				},
				{
					"indexed": false,
					"internalType": "uint256",
					"name": "withdrawnAmount",
					"type": "uint256"
				}
			],
			"name": "Withdrawn",
			"type": "event"
		},
		{
			"inputs": [],
			"name": "UPGRADE_INTERFACE_VERSION",
			"outputs": [
				{
					"internalType": "string",
					"name": "",
					"type": "string"
				}
			],
			"stateMutability": "view",
			"type": "function"
		},
		{
			"inputs": [],
			"name": "aavePool",
			"outputs": [
				{
					"internalType": "address",
					"name": "",
					"type": "address"
				}
			],
			"stateMutability": "view",
			"type": "function"
		},
		{
			"inputs": [
				{
					"internalType": "uint256",
					"name": "amount",
					"type": "uint256"
				},
				{
					"internalType": "string",
					"name": "cardType",
					"type": "string"
				},
				{
					"internalType": "string",
					"name": "userEmail",
					"type": "string"
				}
			],
			"name": "buyCard",
			"outputs": [],
			"stateMutability": "nonpayable",
			"type": "function"
		},
		{
			"inputs": [
				{
					"internalType": "uint256",
					"name": "amount",
					"type": "uint256"
				},
				{
					"internalType": "string",
					"name": "cardType",
					"type": "string"
				},
				{
					"internalType": "string",
					"name": "userEmail",
					"type": "string"
				}
			],
			"name": "buyCardDirect",
			"outputs": [],
			"stateMutability": "nonpayable",
			"type": "function"
		},
		{
			"inputs": [
				{
					"internalType": "address",
					"name": "",
					"type": "address"
				}
			],
			"name": "cardBalances",
			"outputs": [
				{
					"internalType": "uint256",
					"name": "",
					"type": "uint256"
				}
			],
			"stateMutability": "view",
			"type": "function"
		},
		{
			"inputs": [],
			"name": "cardConfig",
			"outputs": [
				{
					"internalType": "uint256",
					"name": "nativeFee",
					"type": "uint256"
				},
				{
					"internalType": "uint256",
					"name": "nonNativeFee",
					"type": "uint256"
				},
				{
					"internalType": "uint256",
					"name": "revenueFee",
					"type": "uint256"
				},
				{
					"internalType": "uint256",
					"name": "counter",
					"type": "uint256"
				},
				{
					"internalType": "address",
					"name": "cardVault",
					"type": "address"
				},
				{
					"internalType": "address",
					"name": "revenueVault",
					"type": "address"
				},
				{
					"internalType": "address",
					"name": "commissionVault",
					"type": "address"
				},
				{
					"internalType": "address",
					"name": "usdcAddress",
					"type": "address"
				},
				{
					"internalType": "uint256",
					"name": "minCardAmount",
					"type": "uint256"
				},
				{
					"internalType": "uint256",
					"name": "maxCardAmount",
					"type": "uint256"
				},
				{
					"internalType": "uint256",
					"name": "dailyCardBuyLimit",
					"type": "uint256"
				}
			],
			"stateMutability": "view",
			"type": "function"
		},
		{
			"inputs": [
				{
					"internalType": "address",
					"name": "",
					"type": "address"
				}
			],
			"name": "cardPurchases",
			"outputs": [
				{
					"internalType": "uint256",
					"name": "unixInRecord",
					"type": "uint256"
				},
				{
					"internalType": "uint256",
					"name": "totalCardBoughtPerDay",
					"type": "uint256"
				}
			],
			"stateMutability": "view",
			"type": "function"
		},
		{
			"inputs": [
				{
					"internalType": "uint256",
					"name": "amount",
					"type": "uint256"
				}
			],
			"name": "depositUsdc",
			"outputs": [],
			"stateMutability": "nonpayable",
			"type": "function"
		},
		{
			"inputs": [
				{
					"internalType": "uint256",
					"name": "",
					"type": "uint256"
				}
			],
			"name": "feeTiers",
			"outputs": [
				{
					"internalType": "uint256",
					"name": "minAmount",
					"type": "uint256"
				},
				{
					"internalType": "uint256",
					"name": "maxAmount",
					"type": "uint256"
				},
				{
					"internalType": "uint256",
					"name": "fee",
					"type": "uint256"
				}
			],
			"stateMutability": "view",
			"type": "function"
		},
		{
			"inputs": [
				{
					"internalType": "uint256",
					"name": "amount",
					"type": "uint256"
				}
			],
			"name": "generateYield",
			"outputs": [],
			"stateMutability": "nonpayable",
			"type": "function"
		},
		{
			"inputs": [
				{
					"internalType": "address",
					"name": "tokenAddress",
					"type": "address"
				}
			],
			"name": "getCustomTokenFee",
			"outputs": [
				{
					"internalType": "uint256",
					"name": "customizedFee",
					"type": "uint256"
				}
			],
			"stateMutability": "view",
			"type": "function"
		},
		{
			"inputs": [
				{
					"internalType": "uint256",
					"name": "amount",
					"type": "uint256"
				}
			],
			"name": "getFee",
			"outputs": [
				{
					"internalType": "uint256",
					"name": "",
					"type": "uint256"
				}
			],
			"stateMutability": "view",
			"type": "function"
		},
		{
			"inputs": [],
			"name": "getFeeTiers",
			"outputs": [
				{
					"components": [
						{
							"internalType": "uint256",
							"name": "minAmount",
							"type": "uint256"
						},
						{
							"internalType": "uint256",
							"name": "maxAmount",
							"type": "uint256"
						},
						{
							"internalType": "uint256",
							"name": "fee",
							"type": "uint256"
						}
					],
					"internalType": "struct ZebecCard.FeeTier[]",
					"name": "",
					"type": "tuple[]"
				}
			],
			"stateMutability": "view",
			"type": "function"
		},
		{
			"inputs": [],
			"name": "getReloadableFee",
			"outputs": [
				{
					"internalType": "uint256",
					"name": "",
					"type": "uint256"
				}
			],
			"stateMutability": "view",
			"type": "function"
		},
		{
			"inputs": [
				{
					"components": [
						{
							"internalType": "uint256",
							"name": "nativeFee",
							"type": "uint256"
						},
						{
							"internalType": "uint256",
							"name": "nonNativeFee",
							"type": "uint256"
						},
						{
							"internalType": "uint256",
							"name": "revenueFee",
							"type": "uint256"
						},
						{
							"internalType": "uint256",
							"name": "counter",
							"type": "uint256"
						},
						{
							"internalType": "address",
							"name": "cardVault",
							"type": "address"
						},
						{
							"internalType": "address",
							"name": "revenueVault",
							"type": "address"
						},
						{
							"internalType": "address",
							"name": "commissionVault",
							"type": "address"
						},
						{
							"internalType": "address",
							"name": "usdcAddress",
							"type": "address"
						},
						{
							"internalType": "uint256",
							"name": "minCardAmount",
							"type": "uint256"
						},
						{
							"internalType": "uint256",
							"name": "maxCardAmount",
							"type": "uint256"
						},
						{
							"internalType": "uint256",
							"name": "dailyCardBuyLimit",
							"type": "uint256"
						}
					],
					"internalType": "struct ZebecCard.CardConfig",
					"name": "card_config",
					"type": "tuple"
				},
				{
					"components": [
						{
							"internalType": "uint256",
							"name": "minAmount",
							"type": "uint256"
						},
						{
							"internalType": "uint256",
							"name": "maxAmount",
							"type": "uint256"
						},
						{
							"internalType": "uint256",
							"name": "fee",
							"type": "uint256"
						}
					],
					"internalType": "struct ZebecCard.FeeTier[]",
					"name": "fee_tiers",
					"type": "tuple[]"
				},
				{
					"internalType": "address",
					"name": "inch_router",
					"type": "address"
				},
				{
					"internalType": "address",
					"name": "weth",
					"type": "address"
				},
				{
					"internalType": "address",
					"name": "zbc_token",
					"type": "address"
				},
				{
					"internalType": "address",
					"name": "aave_pool",
					"type": "address"
				}
			],
			"name": "initialize",
			"outputs": [],
			"stateMutability": "nonpayable",
			"type": "function"
		},
		{
			"inputs": [],
			"name": "oneInchRouter",
			"outputs": [
				{
					"internalType": "address",
					"name": "",
					"type": "address"
				}
			],
			"stateMutability": "view",
			"type": "function"
		},
		{
			"inputs": [],
			"name": "owner",
			"outputs": [
				{
					"internalType": "address",
					"name": "",
					"type": "address"
				}
			],
			"stateMutability": "view",
			"type": "function"
		},
		{
			"inputs": [],
			"name": "proxiableUUID",
			"outputs": [
				{
					"internalType": "bytes32",
					"name": "",
					"type": "bytes32"
				}
			],
			"stateMutability": "view",
			"type": "function"
		},
		{
			"inputs": [],
			"name": "reloadableFee",
			"outputs": [
				{
					"internalType": "uint256",
					"name": "",
					"type": "uint256"
				}
			],
			"stateMutability": "view",
			"type": "function"
		},
		{
			"inputs": [],
			"name": "renounceOwnership",
			"outputs": [],
			"stateMutability": "nonpayable",
			"type": "function"
		},
		{
			"inputs": [
				{
					"internalType": "address",
					"name": "cardVault",
					"type": "address"
				}
			],
			"name": "setCardVault",
			"outputs": [],
			"stateMutability": "nonpayable",
			"type": "function"
		},
		{
			"inputs": [
				{
					"internalType": "address",
					"name": "commissionVault",
					"type": "address"
				}
			],
			"name": "setComissionVault",
			"outputs": [],
			"stateMutability": "nonpayable",
			"type": "function"
		},
		{
			"inputs": [
				{
					"internalType": "address",
					"name": "tokenAddress",
					"type": "address"
				},
				{
					"internalType": "uint256",
					"name": "customizedFee",
					"type": "uint256"
				}
			],
			"name": "setCustomTokenFee",
			"outputs": [],
			"stateMutability": "nonpayable",
			"type": "function"
		},
		{
			"inputs": [
				{
					"internalType": "uint256",
					"name": "dailyCardBuyLimit",
					"type": "uint256"
				}
			],
			"name": "setDailyCardBuyLimit",
			"outputs": [],
			"stateMutability": "nonpayable",
			"type": "function"
		},
		{
			"inputs": [
				{
					"internalType": "uint256",
					"name": "minAmount",
					"type": "uint256"
				},
				{
					"internalType": "uint256",
					"name": "maxAmount",
					"type": "uint256"
				},
				{
					"internalType": "uint256",
					"name": "fee",
					"type": "uint256"
				}
			],
			"name": "setFee",
			"outputs": [],
			"stateMutability": "nonpayable",
			"type": "function"
		},
		{
			"inputs": [
				{
					"components": [
						{
							"internalType": "uint256",
							"name": "minAmount",
							"type": "uint256"
						},
						{
							"internalType": "uint256",
							"name": "maxAmount",
							"type": "uint256"
						},
						{
							"internalType": "uint256",
							"name": "fee",
							"type": "uint256"
						}
					],
					"internalType": "struct ZebecCard.FeeTier[]",
					"name": "newTiers",
					"type": "tuple[]"
				}
			],
			"name": "setFeeArray",
			"outputs": [],
			"stateMutability": "nonpayable",
			"type": "function"
		},
		{
			"inputs": [
				{
					"internalType": "uint256",
					"name": "maxAmount",
					"type": "uint256"
				}
			],
			"name": "setMaxCardAmount",
			"outputs": [],
			"stateMutability": "nonpayable",
			"type": "function"
		},
		{
			"inputs": [
				{
					"internalType": "uint256",
					"name": "minAmount",
					"type": "uint256"
				}
			],
			"name": "setMinCardAmount",
			"outputs": [],
			"stateMutability": "nonpayable",
			"type": "function"
		},
		{
			"inputs": [
				{
					"internalType": "uint256",
					"name": "nativeFee",
					"type": "uint256"
				}
			],
			"name": "setNativeFee",
			"outputs": [],
			"stateMutability": "nonpayable",
			"type": "function"
		},
		{
			"inputs": [
				{
					"internalType": "uint256",
					"name": "nonNativeFee",
					"type": "uint256"
				}
			],
			"name": "setNonNativeFee",
			"outputs": [],
			"stateMutability": "nonpayable",
			"type": "function"
		},
		{
			"inputs": [
				{
					"internalType": "uint256",
					"name": "fee",
					"type": "uint256"
				}
			],
			"name": "setReloadableFee",
			"outputs": [],
			"stateMutability": "nonpayable",
			"type": "function"
		},
		{
			"inputs": [
				{
					"internalType": "uint256",
					"name": "revenueFee",
					"type": "uint256"
				}
			],
			"name": "setRevenueFee",
			"outputs": [],
			"stateMutability": "nonpayable",
			"type": "function"
		},
		{
			"inputs": [
				{
					"internalType": "address",
					"name": "revenueVault",
					"type": "address"
				}
			],
			"name": "setRevenueVault",
			"outputs": [],
			"stateMutability": "nonpayable",
			"type": "function"
		},
		{
			"inputs": [
				{
					"internalType": "address",
					"name": "usdcAddress",
					"type": "address"
				}
			],
			"name": "setUsdcAddress",
			"outputs": [],
			"stateMutability": "nonpayable",
			"type": "function"
		},
		{
			"inputs": [
				{
					"internalType": "contract IAggregationExecutor",
					"name": "executor",
					"type": "address"
				},
				{
					"components": [
						{
							"internalType": "contract IERC20",
							"name": "srcToken",
							"type": "address"
						},
						{
							"internalType": "contract IERC20",
							"name": "dstToken",
							"type": "address"
						},
						{
							"internalType": "address payable",
							"name": "srcReceiver",
							"type": "address"
						},
						{
							"internalType": "address payable",
							"name": "dstReceiver",
							"type": "address"
						},
						{
							"internalType": "uint256",
							"name": "amount",
							"type": "uint256"
						},
						{
							"internalType": "uint256",
							"name": "minReturnAmount",
							"type": "uint256"
						},
						{
							"internalType": "uint256",
							"name": "flags",
							"type": "uint256"
						}
					],
					"internalType": "struct IAggregationRouterV6.SwapDescription",
					"name": "desc",
					"type": "tuple"
				},
				{
					"internalType": "bytes",
					"name": "routeData",
					"type": "bytes"
				},
				{
					"internalType": "string",
					"name": "cardType",
					"type": "string"
				},
				{
					"internalType": "string",
					"name": "userEmail",
					"type": "string"
				}
			],
			"name": "swapAndBuy",
			"outputs": [],
			"stateMutability": "payable",
			"type": "function"
		},
		{
			"inputs": [
				{
					"internalType": "contract IAggregationExecutor",
					"name": "executor",
					"type": "address"
				},
				{
					"components": [
						{
							"internalType": "contract IERC20",
							"name": "srcToken",
							"type": "address"
						},
						{
							"internalType": "contract IERC20",
							"name": "dstToken",
							"type": "address"
						},
						{
							"internalType": "address payable",
							"name": "srcReceiver",
							"type": "address"
						},
						{
							"internalType": "address payable",
							"name": "dstReceiver",
							"type": "address"
						},
						{
							"internalType": "uint256",
							"name": "amount",
							"type": "uint256"
						},
						{
							"internalType": "uint256",
							"name": "minReturnAmount",
							"type": "uint256"
						},
						{
							"internalType": "uint256",
							"name": "flags",
							"type": "uint256"
						}
					],
					"internalType": "struct IAggregationRouterV6.SwapDescription",
					"name": "desc",
					"type": "tuple"
				},
				{
					"internalType": "bytes",
					"name": "routeData",
					"type": "bytes"
				}
			],
			"name": "swapAndDeposit",
			"outputs": [],
			"stateMutability": "payable",
			"type": "function"
		},
		{
			"inputs": [
				{
					"internalType": "address",
					"name": "newOwner",
					"type": "address"
				}
			],
			"name": "transferOwnership",
			"outputs": [],
			"stateMutability": "nonpayable",
			"type": "function"
		},
		{
			"inputs": [
				{
					"internalType": "address",
					"name": "newImplementation",
					"type": "address"
				},
				{
					"internalType": "bytes",
					"name": "data",
					"type": "bytes"
				}
			],
			"name": "upgradeToAndCall",
			"outputs": [],
			"stateMutability": "payable",
			"type": "function"
		},
		{
			"inputs": [],
			"name": "wEth",
			"outputs": [
				{
					"internalType": "address",
					"name": "",
					"type": "address"
				}
			],
			"stateMutability": "view",
			"type": "function"
		},
		{
			"inputs": [
				{
					"internalType": "uint256",
					"name": "amount",
					"type": "uint256"
				}
			],
			"name": "withdraw",
			"outputs": [],
			"stateMutability": "nonpayable",
			"type": "function"
		},
		{
			"inputs": [
				{
					"internalType": "uint256",
					"name": "amount",
					"type": "uint256"
				}
			],
			"name": "withdrawYield",
			"outputs": [],
			"stateMutability": "nonpayable",
			"type": "function"
		},
		{
			"inputs": [],
			"name": "zebecToken",
			"outputs": [
				{
					"internalType": "address",
					"name": "",
					"type": "address"
				}
			],
			"stateMutability": "view",
			"type": "function"
		}
	],
	"bytecode": "0x60a0806040523461002a57306080526135b49081610030823960805181818161153201526115ec0152f35b600080fdfe6080604052600436101561001257600080fd5b6000803560e01c8063144354451461272d578063145096d5146122ec578063166dbb73146121b857806318aae52c1461185a5780631d4247ab14612179578063230ed44a1461212d5780632357928e14611fdb5780632661572414611b835780632e1a7d4d14611ac557806337cf533114611a3f578063444cc65914611a1c578063458e551e1461187857806346a842181461185a57806348455ff0146118375780634d68e925146117f85780634f1ef286146115ac57806352d1902d146115175780635b65b9ab146114015780636ca035d3146113ab5780636ca75e9514610fd957806371036a4914610d51578063715018a614610cd55780638da5cb5b14610c8f578063a03e4bc314610c68578063a53ebd8a14610a82578063a5b7ac7e14610a40578063ab31978f146105e5578063ac3af208146105be578063ad3cb1cc1461055c578063b0d097de14610539578063b573dca714610512578063b91a1e8f146104f0578063bea9c43e146104cd578063cdec976f14610436578063d38bcdee146103f7578063d895a46b146103b8578063df6d921214610391578063e591f2ff1461036e578063e9a4d24f14610279578063f076a84614610241578063f2fde38b146102145763fcee45f4146101eb57600080fd5b34610211576020366003190112610211576020610209600435612f8e565b604051908152f35b80fd5b50346102115760203660031901126102115761023e6102316127aa565b61023961302b565b612ef0565b80f35b50346102115760203660031901126102115760406020916001600160a01b036102686127aa565b168152601183522054604051908152f35b5034610211578060031936011261021157601254610296816127c0565b906102a46040519283612788565b8082526012835260209182810191847fbb8a6a4669ba250d26cd7a459eca9d215f8307e33aebe50379bc5a3617ec3444845b83831061032e57505050506040519280840191818552518092526040840192945b8281106103045784840385f35b855180518552808301518584015260409081015190850152948101946060909301926001016102f7565b60038760019260409a9997989a5161034581612750565b8554815284860154838201526002860154604082015281520192019201919096949395966102d6565b50346102115760203660031901126102115761038861302b565b60043560015580f35b503461021157806003193601126102115760206001600160a01b03600c5416604051908152f35b5034610211576020366003190112610211576001600160a01b036103da6127aa565b6103e261302b565b166001600160a01b0319600454161760045580f35b5034610211576020366003190112610211576001600160a01b036104196127aa565b61042161302b565b166001600160a01b0319600754161760075580f35b5034610211576040366003190112610211576104506127aa565b61045861302b565b60405190604082019082821067ffffffffffffffff8311176104b7576001916040526001600160a01b03809116908184526020840191602435835285526014602052604085209351166001600160a01b03198454161783555191015580f35b634e487b7160e01b600052604160045260246000fd5b5034610211576020366003190112610211576104e761302b565b600435600a5580f35b50346102115760203660031901126102115761050a61302b565b600435815580f35b503461021157806003193601126102115760206001600160a01b03600d5416604051908152f35b50346102115760203660031901126102115761055361302b565b60043560095580f35b50346102115780600319360112610211576105ba60405161057c8161276c565b600581527f352e302e300000000000000000000000000000000000000000000000000000006020820152604051918291602083526020830190612a13565b0390f35b503461021157806003193601126102115760206001600160a01b03600b5416604051908152f35b503461021157602080600319360112610a3c5760043590610607331515612b8b565b610612821515612af5565b6001600160a01b039182600e541683600754166040519182917f35ea6a7500000000000000000000000000000000000000000000000000000000835260048301528160246101e09485935afa9081156108b657859287926108c1575b50506101000151163385526011835261069561068e8360408820546130e1565b9190612b40565b338087526011855260408088209290925590516323b872dd60e01b8152600481019190915230602482015260448101839052838160648189865af19081156108b6578691610899575b501561085557600e5460405163095ea7b360e01b81529085166001600160a01b03166004820152602481018390529190839083908188816044810103925af191821561084a57839261073791879161081d575b50612e74565b606484600e541694600754168660405196879485937f69328dec000000000000000000000000000000000000000000000000000000008552600485015260248401523060448401525af19182156108125783926107be575b507ff09b3678dd1b265d3e2d9f681481c92d1cdd81b6e19fa43651707dedf99263a8906040519283523392a280f35b9080925081813d831161080b575b6107d68183612788565b810103126108065751907ff09b3678dd1b265d3e2d9f681481c92d1cdd81b6e19fa43651707dedf99263a861078f565b600080fd5b503d6107cc565b6040513d85823e3d90fd5b61083d9150843d8611610843575b6108358183612788565b810190612c6c565b38610731565b503d61082b565b6040513d87823e3d90fd5b6064836040519062461bcd60e51b82526004820152601660248201527f61546f6b656e207472616e73666572206661696c6564000000000000000000006044820152fd5b6108b09150843d8611610843576108358183612788565b386106de565b6040513d88823e3d90fd5b8193508092503d8311610a35575b6108d98183612788565b810103818112610a2d576040519182019067ffffffffffffffff90838310828411176104b75786908360405212610a31576102008301908111828210176104b75760405282518152815261092e848301612ebf565b8482015261093e60408301612ebf565b604082015261094f60608301612ebf565b606082015261096060808301612ebf565b608082015261097160a08301612ebf565b60a082015260c082015164ffffffffff81168103610a2d5760c082015260e08201519061ffff82168203610a2d5785926101009260e0830152826109b6818301612edc565b908301526101206109c8818301612edc565b908301526101406109da818301612edc565b908301526101606109ec818301612edc565b908301526101806109fe818301612ebf565b908301526101a0610a10818301612ebf565b90830152610a226101c0809201612ebf565b90820152903861066e565b8680fd5b8780fd5b503d6108cf565b5080fd5b503461021157602036600319011261021157604080916001600160a01b03610a666127aa565b1681526010602052206001815491015482519182526020820152f35b503461021157610a91366129a6565b916001600160a01b03806007541690610aab331515612b8b565b60085483101580610c5c575b610ac090612d9c565b338652602060118152604087205490848210610c3e5792610bf692610bec610b3a9360108897610b4660408e610b3f8c6127107f7747419eb85d2a64ce5c3fd1bf01b54b47cdcfb621ac43741f8460d4f3ed40cb9f610b21610b2791612f8e565b83612a38565b0497610b3389836130fa565b9d90612b40565b6130fa565b9390612b40565b338152601184522055610b5a600354612de7565b6003558c89610b6842613165565b919091338552868652610b7e6040862054613165565b93919091149384610c34575b505082610c2a575b505015610c13575060016040610bbe92338152858552610bb78d8484842001546130e1565b9490612b40565b3381528585522001555b338d5252610be1600160408d200154600a541015612df6565b826005541684613113565b6004541690613113565b60035493610c0d6040519283923396429285612e41565b0390a380f35b906040600191338152858552204281550155610bc8565b1490503880610b92565b1492503880610b8a565b6044858360405191634787a10360e11b835260048301526024820152fd5b50600954831115610ab7565b503461021157806003193601126102115760206001600160a01b03600e5416604051908152f35b503461021157806003193601126102115760206001600160a01b037f9016d09d72d40fdae2fd8ceac6b6234c7706214fd39c1cd1e609a0528c1993005416604051908152f35b5034610211578060031936011261021157610cee61302b565b60006001600160a01b037f9016d09d72d40fdae2fd8ceac6b6234c7706214fd39c1cd1e609a0528c1993008054906001600160a01b031982169055167f8be0079c531659141344cd1fd0a4f28419497f9722a3daafe3b4186f6b6457e08280a380f35b503461021157610d60366129a6565b916001600160a01b03806007541690610d7a331515612b8b565b60085483101580610fcd575b610d8f90612d9c565b6040517f70a082310000000000000000000000000000000000000000000000000000000081523360048201526020908181602481875afa908115610fc2578891610f95575b50848110610f7757508392610bf692610f2a610e9393610e147f7747419eb85d2a64ce5c3fd1bf01b54b47cdcfb621ac43741f8460d4f3ed40cb98612f8e565b5088604051610e3f838281610e3281830196878151938492016129f0565b8101038084520182612788565b519020604051828101906972656c6f616461626c6560b01b8252600a8152610e668161276c565b51902003610f61576010612710610e80600f545b8a612a38565b0491610e8c838a6130fa565b9790612b40565b610e9e600354612de7565b6003558c89610eac42613165565b919091338552868652610ec26040862054613165565b93919091149384610f57575b505082610f4d575b505015610f36575060016040610efb92338152858552610bb78d8484842001546130e1565b3381528585522001555b338d5252610f1e600160408d200154600a541015612df6565b8260055416338561308e565b6004541690339061308e565b906040600191338152858552204281550155610f05565b1490503880610ed6565b1492503880610ece565b6010612710610e80610f728a612f8e565b610e7a565b8460449160405191634787a10360e11b835260048301526024820152fd5b90508181813d8311610fbb575b610fac8183612788565b81010312610806575138610dd4565b503d610fa2565b6040513d8a823e3d90fd5b50600954831115610d86565b5061012036600319011261021157610fef6127aa565b90610ff9366128b5565b67ffffffffffffffff9290610104358481116113a75761101d90369060040161295f565b916001600160a01b039160209561103e848884015116856007541614612bd6565b61104f846060840151163014612c21565b838251169484600c541686141593608084019361106f855130338b61308e565b600b54855160405163095ea7b360e01b81529189166001600160a01b0316600483015260248201528a816044818d8d5af190811561139c57916110c6604094926110e899989796948e8e9261137f575b5050612c84565b88600b5416918451988994859384936307ed237960e01b855260048501612ce5565b039134905af19283156113745787948894611339575b509061111a9161110f861515612d51565b610b3f8585516130fa565b826111ea575b505050610c0d906111ae60118899610b3f61118f61119e6127106111828d9e9d8d9e9d60407fd8066379a11f110d1eb579110571ce47b1557c623d7ae29f423d92cd6dd953be9f60015493815260148a5220908154166111de575b508c612a38565b04809c610bb7828d6130fa565b60075460055482169116613113565b338d5283835260408d20546130e1565b338b5252604089205551946040519384933397859094939260609260808301968352602083015260408201520152565b6001915001543861117b565b156112555750906111ae60118899610b3f61118f61119e6127106111828d9e9d8d9e9d60407fd8066379a11f110d1eb579110571ce47b1557c623d7ae29f423d92cd6dd953be9f61123f610c0d9e3386613113565b5050505050505050509998979650829350611120565b60405189810192918311818410176104b7578289939284809493819460405252335af16112806133a1565b50156112cf57610c0d906111ae60118899610b3f61118f61119e6127106111828d9e9d8d9e9d60407fd8066379a11f110d1eb579110571ce47b1557c623d7ae29f423d92cd6dd953be9f61123f565b6084876040519062461bcd60e51b82526004820152602660248201527f5472616e7366657248656c7065723a204e41544956455f5452414e534645525f60448201527f4641494c454400000000000000000000000000000000000000000000000000006064820152fd5b61111a92955061136291945060403d60401161136d575b61135a8183612788565b810190612ccf565b9490949390916110fe565b503d611350565b6040513d89823e3d90fd5b6113959250803d10610843576108358183612788565b388e6110bf565b6040513d8c823e3d90fd5b8380fd5b50346102115760203660031901126102115760406113c76127aa565b916001600160a01b03809316815260146020522090815416156000146113f557506020600154604051908152f35b60016020910154610209565b50346102115760603660031901126102115760443560043561142161302b565b8291835b60125481101561150f5761143881612864565b5054831015806114f8575b61144f57600101611425565b8192935061145e600291612864565b50015560015b1561146d578280f35b6040519161147a83612750565b825260243560208301526040820152601254680100000000000000008110156114e4578060016114ad9201601255612864565b6114d157815181556020820151600182015560409091015160029091015538808280f35b602483634e487b7160e01b815280600452fd5b602483634e487b7160e01b81526041600452fd5b50600161150482612864565b500154831115611443565b509091611464565b50346102115780600319360112610211576001600160a01b037f00000000000000000000000000000000000000000000000000000000000000001630036115825760206040517f360894a13ba1a3210667c828492db98dca3e2076cc3735a920a3ca505d382bbc8152f35b60046040517fe07c8dba000000000000000000000000000000000000000000000000000000008152fd5b506040366003190112610211576115c16127aa565b60243567ffffffffffffffff81116117f4576115e190369060040161295f565b6001600160a01b03807f0000000000000000000000000000000000000000000000000000000000000000168030149081156117c6575b506115825761162461302b565b8216916040517f52d1902d000000000000000000000000000000000000000000000000000000008152602081600481875afa85918161178e575b5061167b5760248460405190634c9c8ce360e01b82526004820152fd5b9284937f360894a13ba1a3210667c828492db98dca3e2076cc3735a920a3ca505d382bbc9081810361175d5750823b156117455780546001600160a01b0319168217905560405184917fbc7cd75a20ee27fd9adebab32041f755214dbc6bffa90cc0225b39da2e5c2d3b8380a283511561171057508083602061170c95519101845af46117066133a1565b916134eb565b5080f35b925050503461171d575080f35b807fb398979f0000000000000000000000000000000000000000000000000000000060049252fd5b60248260405190634c9c8ce360e01b82526004820152fd5b602490604051907faa1d49a40000000000000000000000000000000000000000000000000000000082526004820152fd5b9091506020813d6020116117be575b816117aa60209383612788565b810103126117ba5751903861165e565b8580fd5b3d915061179d565b9050817f360894a13ba1a3210667c828492db98dca3e2076cc3735a920a3ca505d382bbc5416141538611617565b8280fd5b5034610211576020366003190112610211576001600160a01b0361181a6127aa565b61182261302b565b166001600160a01b0319600554161760055580f35b50346102115760203660031901126102115761185161302b565b60043560085580f35b50346102115780600319360112610211576020600f54604051908152f35b503461021157602080600319360112610a3c576004356001600160a01b039182600754166118a7331515612b8b565b6118b2831515612af5565b3385526011825260408520548381106119fe5782848094936118db61068e8a9861191f966130fa565b33885260118452604088205587600e54168760405180968195829463095ea7b360e01b845260048401602090939291936001600160a01b0360408201951681520152565b03925af19081156119f35761193c9285926119d6575b5050612e74565b82600e54169260075416833b156117f4576084908360405195869485937f617ba037000000000000000000000000000000000000000000000000000000008552600485015260248401523360448401528160648401525af180156119cb576119a2575080f35b67ffffffffffffffff81116119b75760405280f35b602482634e487b7160e01b81526041600452fd5b6040513d84823e3d90fd5b6119ec9250803d10610843576108358183612788565b3880611935565b6040513d86823e3d90fd5b8360449160405191634787a10360e11b835260048301526024820152fd5b503461021157602036600319011261021157611a3661302b565b600435600f5580f35b503461021157806003193601126102115761016090546001546002546003546001600160a01b03806004541690806005541681600654169160075416926008549460095496600a54986040519a8b5260208b015260408a01526060890152608088015260a087015260c086015260e0850152610100840152610120830152610140820152f35b5034610211576020366003190112610211576004356001600160a01b0360075416611af1821515612af5565b611afc331515612b8b565b33835260116020526040832054828110611b6557611b3691611b2261068e8580946130fa565b338652601160205260408620553390613113565b6040519081527f7084f5476618d8e60b11ef0d7d3f06914655adb8793e28ff7f018d4c76d505d560203392a280f35b8260449160405191634787a10360e11b835260048301526024820152fd5b5061016036600319011261021157611b996127aa565b611ba2366128b5565b67ffffffffffffffff61010435818111611fd757611bc490369060040161295f565b91610124358281116117ba57611bde90369060040161295f565b92610144359283116117ba57611bfb611c9793369060040161295f565b94611c07331515612b8b565b611c2a6001600160a01b036020850151166001600160a01b036007541614612bd6565b611c426001600160a01b036060850151163014612c21565b6001600160a01b0383511691611c5e608085015130338661308e565b600b54608085015160405163095ea7b360e01b81526001600160a01b039092166004830152602482015294602090869081906044820190565b03818b875af1918215610fc257611cbb604093611ce5978b91611fb8575b50612c84565b846001600160a01b03600b5416918451978894859384936307ed237960e01b855260048501612ce5565b039134905af180156108b65786938791611f93575b50611d06841515612d51565b84611d30600154848a52601460205260408a206001600160a01b03815416611f87575b5086612a38565b612710900494859289611d4385846130fa565b97611d4f899692612b40565b600854861015611e507f7747419eb85d2a64ce5c3fd1bf01b54b47cdcfb621ac43741f8460d4f3ed40cb9b611ee97fd8066379a11f110d1eb579110571ce47b1557c623d7ae29f423d92cd6dd953be99611ed760016040611f239a60809a89611efb9a611f7b575b611dc090612d9c565b611de26001600160a01b0360075416986001600160a01b03600554168a613113565b8251611dfe60208281610e3281830196878151938492016129f0565b519020825160208101906972656c6f616461626c6560b01b8252600a8152611e258161276c565b51902003611f6757612710611e3d600f545b87612a38565b0494611e4986826130fa565b9990612b40565b611e5b600354612de7565b600355611e6742613165565b9190913385526010602052611e7e86862054613165565b93919091149384611f5d575b505082611f53575b505015611f3d5761068e611eb39133845260106020528585852001546130e1565b33825260106020528383832001555b3381526010602052200154600a541015612df6565b6001600160a01b036005541683613113565b6001600160a01b036004541690613113565b0151946040519384933397859094939260609260808301968352602083015260408201520152565b0390a360035493610c0d6040519283923396429285612e41565b3382526010602052838383204281550155611ec2565b1490503880611e92565b1492503880611e8a565b612710611e3d611f7687612f8e565b611e37565b50600954861115611db7565b60019150015438611d29565b9050611faf91935060403d60401161136d5761135a8183612788565b92909238611cfa565b611fd1915060203d602011610843576108358183612788565b38611cb5565b8480fd5b503461021157602080600319360112610a3c57600435906001600160a01b03600754166040517fdd62ed3e0000000000000000000000000000000000000000000000000000000081523360048201523060248201528281604481855afa801561084a57849186916120fc575b50106120b85790612088837f2da466a7b24304f47e87fa2e1e5a81b9831ce54fec19055ce277ca2f39ba42c49361207f821515612af5565b3090339061308e565b338452601181526120a061068e8460408720546130e1565b3385526011825260408520556040519283523392a280f35b6064826040519062461bcd60e51b82526004820152601660248201527f496e73756666696369656e7420616c6c6f77616e6365000000000000000000006044820152fd5b809250848092503d8311612126575b6121158183612788565b81010312611fd75783905138612047565b503d61210b565b5034610211576020366003190112610211576004359060125482101561021157606061215883612864565b50805490600260018201549101549060405192835260208301526040820152f35b5034610211576020366003190112610211576001600160a01b0361219b6127aa565b6121a361302b565b166001600160a01b0319600654161760065580f35b503461021157602080600319360112610a3c5760043567ffffffffffffffff81116117f4576121eb9036906004016127d8565b906121f461302b565b6012548360125580612278575b50602082519261221084612a61565b0190601284527fbb8a6a4669ba250d26cd7a459eca9d215f8307e33aebe50379bc5a3617ec344484925b848410612245578580f35b6003838261226c600194518690604060029180518455602081015160018501550151910155565b0192019301929061223a565b600390806003029060038204036122d857601285527fbb8a6a4669ba250d26cd7a459eca9d215f8307e33aebe50379bc5a3617ec3444908101905b8181106122c1575050612201565b8086849255866001820155866002820155016122b3565b602485634e487b7160e01b81526011600452fd5b50346102115736600319016102008112610a3c57610160809112610a3c5760405190810181811067ffffffffffffffff8211176114e45760405260043581526024356020820152604435604082015260643560608201526084356001600160a01b03811681036117f457608082015260a4356001600160a01b03811681036117f45760a082015260c4356001600160a01b03811681036117f45760c082015260e4356001600160a01b03811681036117f45760e08201526101043561010082015261012435610120820152610144356101408201526101643567ffffffffffffffff81116117f4576123e29036906004016127d8565b61018435916001600160a01b03831683036113a7576101a435926001600160a01b0384168403611fd7576101c435936001600160a01b03851685036117ba576101e435906001600160a01b0382168203610a2d577ff0c57e16840df040f15088dc2f81fe391c3923bec73e23a9662efc9c229c6a00549567ffffffffffffffff8716158061271f575b600167ffffffffffffffff8916149081612715575b15908161270c575b506126e2576001600160a01b03809492818094600167ffffffffffffffff198c16177ff0c57e16840df040f15088dc2f81fe391c3923bec73e23a9662efc9c229c6a005560ff8b60401c16156126a3575b88518c556020890151600155604089015160025560608901516003556101408260808b015116996001600160a01b03199a8b60045416176004558360a0820151168b60055416176005558360c0820151168b60065416176006558360e0820151168b60075416176007556101008101516008556101208101516009550151600a556125626133d1565b61256a6133d1565b6125726133d1565b61257b33612ef0565b1687600b541617600b551685600c541617600c551683600d541617600d551690600e541617600e5560208151916125b183612a61565b01601284527fbb8a6a4669ba250d26cd7a459eca9d215f8307e33aebe50379bc5a3617ec344484915b83831061266f578560ff8660401c16156125f15780f35b68ff0000000000000000197ff0c57e16840df040f15088dc2f81fe391c3923bec73e23a9662efc9c229c6a0054167ff0c57e16840df040f15088dc2f81fe391c3923bec73e23a9662efc9c229c6a00557fc7f505b2f371ae2175ee4913f4499e1f2633a7b5936321eed1cdaeb6115181d2602060405160018152a180f35b6003602082612697600194518690604060029180518455602081015160018501550151910155565b019201920191906125da565b68ffffffffffffffffff198b1668010000000000000001177ff0c57e16840df040f15088dc2f81fe391c3923bec73e23a9662efc9c229c6a00556124d9565b60046040517ff92ee8a9000000000000000000000000000000000000000000000000000000008152fd5b90501538612488565b303b159150612480565b5060ff8760401c161561246b565b50346102115760203660031901126102115761274761302b565b60043560025580f35b6060810190811067ffffffffffffffff8211176104b757604052565b6040810190811067ffffffffffffffff8211176104b757604052565b90601f8019910116810190811067ffffffffffffffff8211176104b757604052565b600435906001600160a01b038216820361080657565b67ffffffffffffffff81116104b75760051b60200190565b81601f820112156108065780359060206127f1836127c0565b9360406128016040519687612788565b8486528286019183606080970286010194818611610806578401925b85841061282e575050505050505090565b868483031261080657848791845161284581612750565b863581528287013583820152858701358682015281520193019261281d565b60125481101561289f576003906012600052027fbb8a6a4669ba250d26cd7a459eca9d215f8307e33aebe50379bc5a3617ec34440190600090565b634e487b7160e01b600052603260045260246000fd5b60e0906023190112610806576040519060e0820182811067ffffffffffffffff8211176104b757604052816001600160a01b03602435818116810361080657825260443581811681036108065760208301526064358181168103610806576040830152608435908116810361080657606082015260a435608082015260c43560a082015260c060e435910152565b67ffffffffffffffff81116104b757601f01601f191660200190565b81601f820112156108065780359061297682612943565b926129846040519485612788565b8284526020838301011161080657816000926020809301838601378301015290565b6060600319820112610806576004359167ffffffffffffffff60243581811161080657836129d69160040161295f565b92604435918211610806576129ed9160040161295f565b90565b60005b838110612a035750506000910152565b81810151838201526020016129f3565b90602091612a2c815180928185528580860191016129f0565b601f01601f1916010190565b81810292918115918404141715612a4b57565b634e487b7160e01b600052601160045260246000fd5b6801000000000000000081116104b75760125481601255808210612a83575050565b60039181600302916003830403612a4b5780600302906003820403612a4b5760009060126000527fbb8a6a4669ba250d26cd7a459eca9d215f8307e33aebe50379bc5a3617ec344492830192015b828110612ade5750505050565b808285925582600182015582600282015501612ad1565b15612afc57565b606460405162461bcd60e51b815260206004820152600e60248201527f496e76616c696420616d6f756e740000000000000000000000000000000000006044820152fd5b15612b4757565b606460405162461bcd60e51b815260206004820152601460248201527f41726974686d65746963204f766572666c6f77210000000000000000000000006044820152fd5b15612b9257565b606460405162461bcd60e51b815260206004820152600f60248201527f496e76616c6964206164647265737300000000000000000000000000000000006044820152fd5b15612bdd57565b606460405162461bcd60e51b815260206004820152601960248201527f496e76616c69642064657374696e6174696f6e20746f6b656e000000000000006044820152fd5b15612c2857565b606460405162461bcd60e51b815260206004820152601c60248201527f496e76616c69642064657374696e6174696f6e207265636569766572000000006044820152fd5b90816020910312610806575180151581036108065790565b15612c8b57565b606460405162461bcd60e51b815260206004820152600f60248201527f417070726f76616c206661696c656400000000000000000000000000000000006044820152fd5b9190826040910312610806576020825192015190565b60c06129ed9493610120936001600160a01b0380911684528082511660208501528060208301511660408501528060408301511660608501526060820151166080840152608081015160a084015260a081015182840152015160e0820152816101008201520190612a13565b15612d5857565b606460405162461bcd60e51b815260206004820152601260248201527f537761704f6e31696e6368206661696c656400000000000000000000000000006044820152fd5b15612da357565b606460405162461bcd60e51b815260206004820152601f60248201527f416d6f756e74206e6f742077697468696e20627579696e672072616e676521006044820152fd5b6000198114612a4b5760010190565b15612dfd57565b606460405162461bcd60e51b815260206004820152601e60248201527f4461696c79204361726420427579204c696d69742045786365656465642100006044820152fd5b949392612e61606093612e6f938852608060208901526080880190612a13565b908682036040880152612a13565b930152565b15612e7b57565b606460405162461bcd60e51b815260206004820152601860248201527f61617665506f6f6c20417070726f76616c206661696c656400000000000000006044820152fd5b51906fffffffffffffffffffffffffffffffff8216820361080657565b51906001600160a01b038216820361080657565b6001600160a01b03809116908115612f5d577f9016d09d72d40fdae2fd8ceac6b6234c7706214fd39c1cd1e609a0528c199300805490836001600160a01b03198316179055167f8be0079c531659141344cd1fd0a4f28419497f9722a3daafe3b4186f6b6457e0600080a3565b60246040517f1e4fbdf700000000000000000000000000000000000000000000000000000000815260006004820152fd5b6012549060005b828110612fe057606460405162461bcd60e51b815260206004820152601360248201527f416d6f756e74206f7574206f662072616e6765000000000000000000000000006044820152fd5b612fe981612864565b505482101580613014575b61300057600101612f95565b6002925061300e9150612864565b50015490565b50600161302082612864565b500154821115612ff4565b6001600160a01b037f9016d09d72d40fdae2fd8ceac6b6234c7706214fd39c1cd1e609a0528c1993005416330361305e57565b60246040517f118cdaa7000000000000000000000000000000000000000000000000000000008152336004820152fd5b6040516323b872dd60e01b60208201526001600160a01b03928316602482015292909116604483015260648201929092526130df916130da82608481015b03601f198101845283612788565b61342a565b565b919082019182106130f25760019190565b600091508190565b919082811161310a576001920390565b50600091508190565b6040517fa9059cbb0000000000000000000000000000000000000000000000000000000060208201526001600160a01b03909216602483015260448201929092526130df916130da82606481016130cc565b62015180900462010bd98082019081129160009283821290801582169115161761338d576226496501908262253d8c83129112908015821691151617613379578060021b60049182820581036133665762023ab1809205918281029081058303613353576003810190856003831291129080158216911516176133535790836131ef9205906134d2565b600181016001811285831290801582169115161761335357610fa090808202918205036133535762164b099005906105b582810290810583036133405790846132399205906134d2565b91601f83019285601f851291129080158216911516176133535782605002926050840581036133405761098f80940593848102908105850361332d579060506132839205906134d2565b94600b84059360028101908260028312911290801582169115161761331a5784600c0290600c8205860361330757906132bb916134d2565b9460301983019283136001166132f457826064029260648405036132f45750506132ee92916132e9916134b6565b6134b6565b91909192565b906011602492634e487b7160e01b835252fd5b602483601189634e487b7160e01b835252fd5b602482601188634e487b7160e01b835252fd5b602487601188634e487b7160e01b835252fd5b602486601187634e487b7160e01b835252fd5b602485601186634e487b7160e01b835252fd5b602484601185634e487b7160e01b835252fd5b602482634e487b7160e01b81526011600452fd5b602483634e487b7160e01b81526011600452fd5b3d156133cc573d906133b282612943565b916133c06040519384612788565b82523d6000602084013e565b606090565b60ff7ff0c57e16840df040f15088dc2f81fe391c3923bec73e23a9662efc9c229c6a005460401c161561340057565b60046040517fd7e6bcf8000000000000000000000000000000000000000000000000000000008152fd5b6000806001600160a01b0361345493169360208151910182865af161344d6133a1565b90836134eb565b805190811515918261349b575b505061346a5750565b602490604051907f5274afe70000000000000000000000000000000000000000000000000000000082526004820152fd5b6134ae9250602080918301019101612c6c565b153880613461565b91909160008382019384129112908015821691151617612a4b57565b81810392916000138015828513169184121617612a4b57565b9061352a575080511561350057805190602001fd5b60046040517f1425ea42000000000000000000000000000000000000000000000000000000008152fd5b81511580613575575b61353b575090565b6024906001600160a01b03604051917f9996b315000000000000000000000000000000000000000000000000000000008352166004820152fd5b50803b1561353356fea264697066735822122082a93b1f65c8577eb364d75d16eb7caa0023f209057de2e35346fce295ed235e64736f6c63430008180033",
	"linkReferences": {},
	"deployedLinkReferences": {}
}